:100000000C9400010C9428010C9428010C942801F4
:100010000C9428010C9428010C9428010C94B3082A
:100020000C9428010C9428010C9428010C94A4121F
:100030000C9428010C9428010C9428010C9428019C
:100040000C94B9090C9428010C9428080C9402080B
:100050000C9428010C9428010C9428010C9428017C
:100060000C9428010C9428014E414E494E49545994
:10007000494E46CDCCCC3D0AD7233C17B7D1387773
:10008000CC2B329595E6241FB14F0A000020410089
:1000900000C84200401C4620BCBE4CCA1B0E5AAED3
:1000A000C59D745365632D576562536F636B6574AB
:1000B0002D4B65793A20000123456789ABCDEFFED2
:1000C000DCBA9876543210F0E1D2C30D0A0D0A0062
:1000D000485454502F312E3120313031205377691C
:1000E000746368696E672050726F746F636F6C73AE
:1000F0000D0A557067726164653A20776562736FA7
:10010000636B65740D0A436F6E6E656374696F6E21
:100110003A20557067726164650D0A5365632D5707
:100120006562536F636B65742D4163636570743AE8
:100130002000474554202F776562736F636B6574A9
:1001400020485454502F312E31000000000024006C
:1001500027002A00000000002300260029000000DC
:100160000008000201000003040700000000000076
:10017000000002546F6F206D616E7920636F6D6DAA
:10018000616E647320646566696E6564002D2D2D53
:100190002D2D2D2D2D2D2D2D2D2D2D2D2D2D2D2D8F
:1001A0002D2D2D2D2D32353845414641352D4539E2
:1001B00031342D343744412D393543412D433541B8
:1001C00042304443383542313100010204081020E6
:1001D00040800102040810200102040810200000E1
:1001E0000000250028002B00040404040404040477
:1001F000020202020202030303030303C61F0A21D1
:1002000011241FBECFEFD8E0DEBFCDBF27E0A4E3AF
:10021000B3E001C01D92AA33B207E1F713E0A0E0FA
:10022000B1E0E4EDF3E502C005900D92A433B1070F
:10023000D9F710E0CFEFD0E004C02197FE010E9473
:10024000DC25CE3FD107C9F70E9406180C94DD29A2
:100250000C94000021E0FC0123A3089521E0FC019F
:1002600022A30895FC011092290610922A061092EA
:100270002B0610922C0610921D0610921E0610924C
:100280001F061092200612A213A215AA089510921A
:10029000250610921906FC0111A2089521E0209371
:1002A000250620931906FC0121A3089508959F9225
:1002B000AF92BF92CF92DF92EF92FF920F931F9374
:1002C000CF93DF935C01CB0161E871E00E94DA0F0C
:1002D000009721F004960E943F0B02C080E090E05E
:1002E0000E947B228C016C01990FEE08FF0880911F
:1002F0000001893021F08F3F09F008C104C0E2E716
:10030000F1E0D49174C089E080930001E2E7F1E06C
:10031000E491EF3F09F4FAC0E13011F1E23009F461
:1003200042C0E11163C014BC15BC84B5826084BDB9
:1003300085B5816085BDE1EFF1E0E491F0E0EE0F7D
:10034000FF1FE252FE4F8591949190933903809361
:100350003803E3EDF1E0E491E0933703D0E049C0E6
:1003600010928000109281008091810088608093BB
:10037000810080918100816080938100E1EFF1E054
:10038000E491F0E0EE0FFF1FE252FE4F8591949151
:100390009093360380933503E3EDF1E0E491E0932D
:1003A0003403D1E026C01092B0001092B1008091C9
:1003B000B00082608093B0008091B1008160809332
:1003C000B100E1EFF1E0E491F0E0EE0FFF1FE25247
:1003D000FE4F859194919093430380934203E3ED04
:1003E000F1E0E491E0934403D2E003C0DE2FD7FDB7
:1003F0008DC061E089E00E943509DD2321F1D23012
:1004000009F465C0D13091F480918100887F8160CA
:1004100080938100C114D104E104F10481F42FEF31
:100420003FEFA901C2EA6BE3962E3DC0C2EA9BE30F
:10043000992EC114D104E104F104E9F010C0C2EA1C
:100440008BE3982E0CC085B5887F836085BDC11471
:10045000D104E104F10409F470C0CDEE912C2CE03C
:1004600032E0D8010E94D52528EE33E040E050E08C
:100470000E941D2403C02FEF3FEFA901D13099F056
:10048000D230A9F1D11142C0C7BD20933E033093B1
:100490003F03409340035093410380916E0082607C
:1004A00080936E0033C08C2F992D90938900809398
:1004B000880020933A0330933B0340933C035093CE
:1004C0003D0380916F00826080936F001FC0809118
:1004D000B100887F84608093B100C114D104E1042D
:1004E000F10409F0BACFCDEE2FEF3FEFA901C09391
:1004F000B300209345033093460340934703509342
:100500004803809170008260809370000E94AD0962
:10051000C60ED71EE81EF91EF501C1AAD2AAE3AA8B
:10052000F4AADF91CF911F910F91FF90EF90DF9090
:10053000CF90BF90AF909F9008952FEF3FEFA9010C
:10054000CDEEA2CFFF920F931F93CF93DF938B013A
:1005500065E871E0C8010E94DA0F009721F0049667
:100560000E943F0B02C080E090E00E947B22C82FD7
:100570006AE871E0C8010E94DA0F009721F0049642
:100580000E943F0B02C080E090E00E947B22F82E88
:100590006FE871E0C8010E94DA0F009721F004961D
:1005A0000E943F0B02C080E090E00E947B22D82F87
:1005B00064E971E0C8010E94DA0F009721F0049607
:1005C0000E943F0B02C080E090E00E947B229C01D1
:1005D000332780913006909131062817390748F467
:1005E0004C2F50E060E070E05F296D2BC9010E9444
:1005F000FB0E8091360690913706892B39F0DF91FA
:10060000CF911F910F91FF900C94660DDF91CF91C8
:100610001F910F91FF9008954F925F926F927F927A
:10062000AF92BF92CF92DF92EF92FF920F931F9300
:10063000CF93DF93EC01CB0161E871E00E94DA0F08
:10064000009721F004960E943F0B02C080E090E0EA
:100650000E947B228C018FE08CA71DA61EA61FA6E0
:1006600018AA8D89882309F440C05801AA0CBB1C24
:1006700084E0A81AB10880E29EE46C01C01AD10A95
:100680000D2C000CEE08FF08CE010E94781381119A
:100690002CC08CA58823C1F30E9488094DA45EA4B8
:1006A0006FA478A8641575058605970568F38CA571
:1006B00081508CA761E083E00E9483080E94880932
:1006C000DC01CB018C0D9D1DAE1DBF1D8DA79EA70E
:1006D000AFA7B8AB0330110518F0C5010197F1F7CA
:1006E00060E083E00E948308CFCFDF91CF911F911C
:1006F0000F91FF90EF90DF90CF90BF90AF907F90E1
:100700006F905F904F900895CF93DF93EC01CB01F2
:1007100061E871E00E94DA0F009721F004960E94D0
:100720003F0B02C080E090E00E947B22BC01CE0122
:10073000DF91CF910C945614CF93DF93EC01CB0152
:1007400061E871E00E94DA0F009721F004960E94A0
:100750003F0B02C080E090E00E947B22BC01CE01F2
:10076000DF91CF910C94FD13CF93DF93EC01CB017C
:1007700061E871E00E94DA0F009721F004960E9470
:100780003F0B02C080E090E00E947B22BC01CE01C2
:10079000DF91CF910C94AF14CF93DF93EC01CB0199
:1007A00061E871E00E94DA0F009721F004960E9440
:1007B0003F0B02C080E090E00E947B22BC01CE0192
:1007C000DF91CF910C94FC14CF93DF9300D000D035
:1007D000CDB7DEB79A01FC014189528963897489DA
:1007E0003A83298389E991E09C838B83CE0101962A
:1007F0000E94D5170F900F900F900F90DF91CF911F
:100800000895CF93DF9300D000D0CDB7DEB79A0123
:10081000FC0145855685678570893A83298389E976
:1008200091E09C838B83CE0101960E94D5170F9097
:100830000F900F900F90DF91CF910895CF93DF939A
:10084000EC01CB0161E871E00E94DA0F009721F022
:1008500004960E943F0B02C080E090E06DE971E0D9
:100860000E941D2721E0892B09F420E02F8BDF91C6
:10087000CF910895CF93DF93EC01CB0161E871E054
:100880000E94DA0F009721F004960E943F0B02C0ED
:1008900080E090E06DE971E00E941D2721E0892B46
:1008A00009F420E02E8BDF91CF910895EF92FF9213
:1008B0000F931F93CF93DF9300D000D0CDB7DEB757
:1008C0007A018EE00E9471098C018FE00E9471090B
:1008D000FA82E98229E931E03C832B83B801681B65
:1008E000790BCE0101960E94A4170F900F900F90E4
:1008F0000F90DF91CF911F910F91FF90EF9008958E
:100900000F931F93CF93DF9300D000D0CDB7DEB706
:100910008A010E94B9138130910519F15CF4892B89
:1009200061F51A83098389E991E09C838B8363EAEB
:1009300071E01FC08230910559F00397F1F41A83DA
:10094000098389E991E09C838B8363EB71E011C09B
:100950001A83098389E991E09C838B8368EA71E0BB
:1009600008C01A83098389E991E09C838B836DEA2F
:1009700071E0CE0101960E944B130F900F900F90E3
:100980000F90DF91CF911F910F910895CF93DF9337
:1009900000D000D0CDB7DEB72DE034E03A83298314
:1009A0001C821B82BE016F5F7F4F0E94630B68EB4E
:1009B00071E08DE094E00E94A4070F900F900F90DB
:1009C0000F90DF91CF9108950F931F93CF93DF93F3
:1009D0008C0160EF80E090E00E940F246DE081E0E8
:1009E00090E00E940F24065F1F4FC2E0D0E0F801A4
:1009F00061918F01CE010E940F242196CD30D10547
:100A0000B1F7DF91CF911F910F910895CF93DF93AD
:100A1000EC01CB0161E871E00E94DA0F009721F050
:100A200004960E943F0B02C080E090E00E947B226F
:100A30009C878B87CE010E94E40491E09DAB41E04E
:100A400050E060E070E04093290650932A066093DE
:100A50002B0670932C0690932D06909322064093BC
:100A60001D0650931E0660931F0670932006109279
:100A7000210610921606DF91CF910895CF93DF9350
:100A8000EC01CB0161E871E00E94DA0F009721F0E0
:100A900004960E943F0B02C080E090E00E94772203
:100AA000698B7A8B8B8B9C8BCE01DF91CF910C94D1
:100AB000E404CF93DF93EC01CB0161E871E00E9485
:100AC000DA0F009721F004960E943F0B02C080E0ED
:100AD00090E00E9477226D877E878F87988BCE016A
:100AE000DF91CF910C94E404EF92FF920F931F9348
:100AF000CF93DF9361157105C9F0EB01FB01019004
:100B00000020E9F77F01E61AF70ADC01ED91FC917C
:100B10000190F081E02DB70109958C01009731F02B
:100B2000A701BE010E941427C80102C080E090E026
:100B3000DF91CF911F910F91FF90EF9008950F9348
:100B40001F93CF93CB018A0161E871E00E94DA0F15
:100B5000009721F004960E943F0B02C080E090E0D5
:100B60000E947B22811102C08EE001C08FE00E94B2
:100B70005A08C82F69E971E0C8010E94DA0FFC0128
:100B8000892B51F4C8010E94030AFC01892B81F0D2
:100B900089E991E09383828384E090E09583848364
:100BA0008C2F90E0A0E0B0E086839783A087B18788
:100BB000CF911F910F9108950F931F93CF93DF93C0
:100BC0008A01FC01C385D48569E971E0CA010E94EC
:100BD000DA0FFC01892B51F4C8010E94030AFC01C1
:100BE000892B79F089E991E09383828384E090E016
:100BF00095838483CE01A0E0B0E086839783A087AD
:100C0000B187DF91CF911F910F910895CF92DF921D
:100C1000EF92FF92CF93DF93EA010E94AD096B013F
:100C20007C0169E971E0CE010E94DA0FFC01892B99
:100C300051F4CE010E94030AFC01892B61F089E97D
:100C400091E09383828384E090E095838483C682DD
:100C5000D782E086F186DF91CF91FF90EF90DF9011
:100C6000CF9008950F931F93CF93DF93EA018C01E8
:100C70000F5F1F4F69E971E0CA010E94DA0FFC01A2
:100C8000892B51F4CE010E94030AFC01892B51F0FB
:100C900089E991E09383828382E090E09583848365
:100CA00017830683DF91CF911F910F910895DC0187
:100CB000ED91FC910190F081E02D0994CF92DF92AB
:100CC000EF92FF920F931F93CF93DF936C017A0102
:100CD0008B01C0E0D0E0CE15DF0589F0D8016D9121
:100CE0008D01D601ED91FC910190F081E02DC601BE
:100CF0000995892B11F47E0102C02196ECCFC70122
:100D0000DF91CF911F910F91FF90EF90DF90CF90E7
:100D10000895FC01918D828D981761F0828DDF011D
:100D2000A80FB11D5D968C91928D9F5F9F73928FDE
:100D300090E008958FEF9FEF0895FC01918D828DD3
:100D4000981731F0828DE80FF11D858D90E00895A0
:100D50008FEF9FEF0895FC01918D228D892F90E0F8
:100D6000805C9F4F821B91098F73992708958DE0B6
:100D700094E00E94AB0621E0892B09F420E0822F49
:100D80000895FC01848DDF01A80FB11DA35ABF4F48
:100D90002C91848D90E001968F739927848FA6897A
:100DA000B7892C93A089B1898C9180648C93938DA1
:100DB000848D981306C00288F389E02D80818F7D91
:100DC00080830895EF92FF920F931F93CF93DF9349
:100DD000EC0181E0888F9B8D8C8D981305C0E8898C
:100DE000F989808185FD24C0F62E0B8D10E00F5F00
:100DF0001F4F0F731127E02E8C8DE8120CC00FB619
:100E000007FCFACFE889F989808185FFF5CFCE010B
:100E10000E94C106F1CF8B8DFE01E80FF11DE35A50
:100E2000FF4FF0820B8FEA89FB898081806207C0C7
:100E3000EE89FF896083E889F989808180648083F5
:100E400081E090E0DF91CF911F910F91FF90EF90A3
:100E50000895CF93DF93EC01888D8823C9F0EA8948
:100E6000FB89808185FD05C0A889B9898C9186FDA3
:100E70000FC00FB607FCF5CF808185FFF2CFA889A0
:100E8000B9898C9185FFEDCFCE010E94C106E7CFD5
:100E9000DF91CF91089580E090E0892B29F00E94A6
:100EA000B70681110C9400000895833081F028F476
:100EB000813099F08230A1F008958730A9F0883010
:100EC000B9F08430D1F4809180008F7D03C080918F
:100ED00080008F7780938000089584B58F7702C05B
:100EE00084B58F7D84BD08958091B0008F7703C055
:100EF0008091B0008F7D8093B00008950E940F27ED
:100F0000EF92FF920F931F93CF93DF938C017B019E
:100F1000C0E0D0E0F701EC0FFD1F6491662361F0A3
:100F2000D801ED91FC910190F081E02DC801099567
:100F3000892B11F02196EECFCE01DF91CF911F9139
:100F40000F91FF90EF9008956115710579F0FB0105
:100F500001900020E9F73197AF01461B570BDC01E8
:100F6000ED91FC910280F381E02D099480E090E006
:100F700008954F925F926F927F92EF92FF920F933C
:100F80001F93CF93DF93CDB7DEB7A1970FB6F89439
:100F9000DEBF0FBECDBF7C01FA01CB0119A222300A
:100FA00008F42AE08E010F5D1F4F422E512C612C58
:100FB000712CBF01A30192010E941D24F901CA01F5
:100FC000015011096A3014F4605D01C0695CD801F8
:100FD0006C93232B242B252B61F7B801C7010E94AA
:100FE000A407A1960FB6F894DEBF0FBECDBFDF9168
:100FF000CF911F910F91FF90EF907F906F905F9036
:101000004F9008951F920F920FB60F9211242F93B5
:101010003F934F935F936F937F938F939F93AF9380
:10102000BF93EF93FF938DE094E00E94C106FF9180
:10103000EF91BF91AF919F918F917F916F915F9150
:101040004F913F912F910F900FBE0F901F901895C9
:101050001F920F920FB60F9211242F938F939F938D
:10106000EF93FF93E0911D04F0911E048081E091C5
:101070002304F091240482FD12C090818091260403
:101080008F5F8F7320912704821751F0E09126041F
:10109000F0E0E35FFB4F958F8093260401C08081D1
:1010A000FF91EF919F918F912F910F900FBE0F9015
:1010B0001F901895CF93DF93282F30E0F901E25A63
:1010C000FE4F8491F901E653FE4FD491F901E851A6
:1010D000FE4FC491CC2391F081110E945507EC2F53
:1010E000F0E0EE0FFF1FEC5AFE4FA591B491EC918A
:1010F000ED2381E090E021F480E002C080E090E008
:10110000DF91CF9108951F93CF93DF93282F30E085
:10111000F901E25AFE4F8491F901E653FE4FD49152
:10112000F901E851FE4FC491CC23C9F0162F81116B
:101130000E945507EC2FF0E0EE0FFF1FE252FE4F2A
:10114000A591B4918FB7F894111105C09C91ED2F22
:10115000E095E92302C0EC91ED2BEC938FBFDF917A
:10116000CF911F9108951F920F920FB60F921124E5
:101170002F933F934F935F936F937F938F939F939F
:10118000AF93BF93EF93FF938091450390914603F4
:10119000A0914703B0914803892B8A2B8B2B59F1DF
:1011A00080914403E0914203F091430390818927A9
:1011B00080838091450390914603A0914703B091AD
:1011C0004803181619061A061B060CF03DC080913C
:1011D000450390914603A0914703B09148030197BE
:1011E000A109B1098093450390934603A093470357
:1011F000B093480329C080910001E2E7F1E0E49157
:101200009FEF90930001E130B9F098F0E230C9F41B
:10121000909170009D7F9093700091E09093B0004A
:101220009091B100987F94609093B1001092B300B8
:1012300008C010926E0005C090916F009D7F909342
:101240006F0060E00E948308FF91EF91BF91AF9122
:101250009F918F917F916F915F914F913F912F91CE
:101260000F900FBE0F901F901895CF93DF9390E0D3
:10127000FC01E653FE4F2491FC01E851FE4F84919E
:10128000882361F190E0880F991FFC01E65BFE4F17
:10129000C591D491FC01E252FE4FA591B491611128
:1012A00009C09FB7F8948881209582238883EC91A8
:1012B0002E230BC0623061F49FB7F8943881822FDF
:1012C000809583238883EC912E2B2C939FBF06C09F
:1012D0008FB7F894E8812E2B28838FBFDF91CF91B1
:1012E00008958E3008F08E508770806480937C0063
:1012F00080917A00806480937A0080917A0086FDE4
:10130000FCCF809178002091790090E0922B089595
:101310003FB7F89480914E0390914F03A0915003F2
:10132000B091510326B5A89B05C02F3F19F0019637
:10133000A11DB11D3FBFBA2FA92F982F8827820F5B
:10134000911DA11DB11DBC01CD0143E0660F771FAA
:10135000881F991F4A95D1F708952FB7F894609187
:101360004A0370914B0380914C0390914D032FBF22
:1013700008951F920F920FB60F9211242F933F934F
:101380008F939F93AF93BF9380914A0390914B03A8
:10139000A0914C03B0914D033091490326E0230FF7
:1013A0002D3720F40296A11DB11D05C029E8230F99
:1013B0000396A11DB11D2093490380934A03909386
:1013C0004B03A0934C03B0934D0380914E03909137
:1013D0004F03A0915003B09151030196A11DB11D7F
:1013E00080934E0390934F03A0935003B093510307
:1013F000BF91AF919F918F913F912F910F900FBE11
:101400000F901F901895CF93DF93EC01688179813D
:101410008AE090E00E94F80F009729F0FC01118209
:10142000108215821482EA81FB81309751F020816D
:1014300031812115310511F0F901F9CF91838083B4
:1014400002C09B838A83DF91CF910895CF93DF936E
:10145000AC01EC01AA81BB812C818D819C919732DA
:1014600019F4C22FD82F15C09232D9F3C22FD82F1A
:10147000FD012BC02C3559F4FD01329612962C91AA
:10148000A2E5B1E08C91811111C0222349F1299389
:10149000DF013C2F6D2FFD01319611962C91119794
:1014A0002223F1F02913E6CF31961AC0821303C02C
:1014B00011962C91EACF1296E5CF892F8F7D81541A
:1014C0008A3150F49993319690813C2F6D2F80EDA5
:1014D000890F8A3090F7F6CF83ED890F823090F331
:1014E000A32FB62F1D92EA018C819D81FB83EA8395
:1014F000BD83AC83DF91CF910895FC0120812D3015
:1015000051F024F42950223030F505C0203219F072
:101510002F3219F008950196F0CFFC0121812A3273
:1015200019F02F3279F00895FC013296CF01208115
:101530003196222311F32A32C9F720812F32B1F7D5
:101540000296DBCFFC013296CF0121912223A9F232
:101550002A30D1F7D2CF08950F931F93CF93DF9303
:101560001F92CDB7DEB78C01FC0182819381698324
:101570000E947D0AFC0120816981261308C0019622
:101580000E947D0AF8019383828381E001C080E09C
:101590000F90DF91CF911F910F910895BF92CF923D
:1015A000DF92EF92FF920F931F93CF93DF9300D0C0
:1015B00000D000D0CDB7DEB78C01FC0180819181D5
:1015C0000E9407107C016BE7C8010E94AC0A8823C7
:1015D00009F441C06DE7C8010E94AC0A81113EC008
:1015E00086E0B82EC8010E94260A6C01892B99F169
:1015F0006AE3C8010E94AC0A882369F11A82198241
:10160000BE016F5F7F4FC8010E944915882319F101
:10161000B601C7010E94DA0F009741F4C7010E948A
:10162000030A0097C1F0FC01D382C282FE01319609
:10163000DC0114968B2D01900D928A95E1F76DE7F0
:10164000C8010E94AC0A811109C06CE2C8010E9465
:10165000AC0A8111C7CF82E593E001C0C70126968D
:101660000FB6F894DEBF0FBECDBFDF91CF911F91B3
:101670000F91FF90EF90DF90CF90BF9008950F9360
:101680001F93CF93DF938C01FC01C081D181C130C6
:10169000D10559F4628173816115710531F081ECD6
:1016A00092E00E941D27892B39F02197229720F480
:1016B000F8018281938102C080E090E0DF91CF91B8
:1016C0001F910F9108950F931F93CF93DF938C0178
:1016D000EB016BE7CE010E941C10F801028113811F
:1016E00001151105A9F0F80162817381CE010E94F4
:1016F00031106AE3CE010E941C10BE01C80104969D
:101700000E94950BF801008111810115110541F42A
:101710006DE7CE01DF91CF911F910F910C941C10BA
:101720006CE2CE010E941C10DBCF3F924F925F9281
:101730006F927F928F929F92AF92BF92CF92DF92E1
:10174000EF92FF920F931F93CF93DF93FC01EB0176
:10175000E080F18085E0E816F10489F502811381CB
:101760006BE5CE010E941C10F80102811381011566
:10177000110559F0BE01C80102960E94950BF801AF
:101780000081118101151105A9F46DE5CE01DF91EC
:10179000CF911F910F91FF90EF90DF90CF90BF906E
:1017A000AF909F908F907F906F905F904F903F9001
:1017B0000C941C106CE2CE010E941C10D8CF86E065
:1017C000E816F104A9F482819381DF91CF911F91F2
:1017D0000F91FF90EF90DF90CF90BF90AF909F90D0
:1017E0008F907F906F905F904F903F900C94630B21
:1017F00082E0E816F104B1F462817381CE01DF91D9
:10180000CF911F910F91FF90EF90DF90CF90BF90FD
:10181000AF909F908F907F906F905F904F903F9090
:101820000C94311081E0E816F10419F4628173819F
:1018300037C084E0E816F10411F5C280D380E4805B
:10184000F580A880B980F7FE13C06DE2C5010E9443
:1018500057068C0144275527BA014C195D096E09BA
:101860007F092AE0C5010E94B907800F911F1CC0A3
:101870002AE0B701A601C5010E94B90715C083E09F
:10188000E816F104B1F482819381A481B581892B9A
:101890008A2B8B2B19F46DE971E002C066EC72E0C3
:1018A000888199810E94A4072A813B81820F931F1E
:1018B000C5C087E0E816F1040CF4C2C082809380B2
:1018C000A480B580C880D980A5019401C501B40168
:1018D0000E94AA25882319F06BEC72E01AC024013B
:1018E0003501E89477F82FEF3FEF4FE75FE7C3014B
:1018F000B2010E94AA25811110C02FEF3FEF4FE7E0
:101900005FE7C301B2010E94E022181634F46FECC5
:1019100072E0C6010E94A4078DC02FEF3FEF4FE792
:101920005FE4C501B4010E94A525181654F02FEFFD
:101930003FEF4FE75FECC501B4010E94E02287FF53
:1019400003C063ED72E0E5CF20E030E0A901C501FE
:10195000B4010E94E02287FF0AC06DE2C6010E9426
:1019600057068C01B7FAB094B7F8B09402C000E003
:1019700010E089EF382E3E0C712C60E070E080E0C2
:101980009FE3731440F420E030E040E251E40E9411
:10199000FD247394F6CF9B01AC01C501B4010E94F4
:1019A00091244B015C010E9476252B013C010E9491
:1019B000E5229B01AC01C501B4010E9490244B01BA
:1019C0005C012AE0B301A201C6010E94B907080F19
:1019D000191F332031F06EE2C6010E945706080F2E
:1019E000191FE7E0EE1629F120E030E040E251E473
:1019F000C501B4010E9446232B013C010E947625BB
:101A00004B01A12CB12C2AE0B501A401C6010E9412
:101A1000B907080F191FC501B4010E94E5229B01F7
:101A2000AC01C301B2010E9490244B015C01EA9415
:101A3000D8CFC8010A811B81800F911F9B838A83A5
:101A4000DF91CF911F910F91FF90EF90DF90CF909A
:101A5000BF90AF909F908F907F906F905F904F90CE
:101A60003F900895CF93DF93A0911006B091110697
:101A7000AF31B10571F463E771E08DE094E00E944D
:101A8000800768EB71E08DE094E0DF91CF910C94DA
:101A9000A40737E03A9FF0013B9FF00D1124EF01BE
:101AA000C451DB4FFE01E55BFF4F9183808332968B
:101AB0004083518362837383349620831196B0935D
:101AC0001106A0931006DF91CF9108950F931F93F5
:101AD000CF93DF93CDB7DEB729970FB6F894DEBF6B
:101AE0000FBECDBF0E94880900913C0610913D06B3
:101AF00020913E0630913F06DC01CB01801B910B0B
:101B0000A20BB30BC297A105B10560F3F8948091C5
:101B10003206909133069A838983A0913606B0915C
:101B20003706FD0131968C91898780912E06A09110
:101B30004006B0914106882309F417C11B82AB32DD
:101B4000B10509F058C09BB180914206982B988747
:101B50009BB1809589238F838F818C83898587FFB3
:101B600002C088858C8358856F8149853C812B8193
:101B700089819A815BB9262F3BB900C046FD252F8C
:101B80006BB900C05BB9362F2BB900C045FD352FAE
:101B90006BB900C05BB9262F3BB900C044FD252FAF
:101BA0006BB900C05BB9362F2BB900C043FD352F90
:101BB0006BB900C05BB9262F3BB900C042FD252F91
:101BC0006BB900C05BB9362F2BB900C041FD352F72
:101BD0006BB900C05BB9262F3BB900C040FD252F73
:101BE0006BB901975BB9362F2BB9419147FD352F62
:101BF0006BB901F6B6C0A532B10509F058C095B170
:101C000080914206982B988795B1809589238F8380
:101C10008F818C83898587FF02C088858C83588556
:101C20006F8149853C812B8189819A8155B9262F05
:101C300035B900C046FD252F65B900C055B9362F0E
:101C400025B900C045FD352F65B900C055B9262F0F
:101C500035B900C044FD252F65B900C055B9362FF0
:101C600025B900C043FD352F65B900C055B9262FF1
:101C700035B900C042FD252F65B900C055B9362FD2
:101C800025B900C041FD352F65B900C055B9262FD3
:101C900035B900C040FD252F65B9019755B9362FDC
:101CA00025B9419147FD352F65B901F65AC098977E
:101CB00009F08BC098B180914206982B988798B113
:101CC000809589238F838F818C83898587FF02C0CC
:101CD00088858C8358856F8149853C812B818981DA
:101CE0009A8158B9262F38B900C046FD252F68B90A
:101CF00000C058B9362F28B900C045FD352F68B946
:101D000000C058B9262F38B900C044FD252F68B946
:101D100000C058B9362F28B900C043FD352F68B927
:101D200000C058B9262F38B900C042FD252F68B928
:101D300000C058B9362F28B900C041FD352F68B909
:101D400000C058B9262F38B900C040FD252F68B90A
:101D5000019758B9362F28B9419147FD352F68B9F9
:101D600001F649873C832B832EC09C9180914206CB
:101D7000982B98879C91809589238F838F818E8360
:101D800088E08D8358856F8149853D812E818981C9
:101D90009A815C9347FD252F2C93262F3A9531F09D
:101DA000441F6C9300C000C000C0F3CF6C930000D0
:101DB00038E04191019769F7B0934106A09340063E
:101DC00049873D832E839A83898378940E9488096A
:101DD00060933C0670933D0680933E0690933F06C9
:101DE00029960FB6F894DEBF0FBECDBFDF91CF911D
:101DF0001F910F9108958F929F92AF92BF92CF92B1
:101E0000DF92EF92FF924B01AA24BB24E82DC52E4E
:101E1000D62EE72EFF24FC2D342F209135062223C9
:101E200061F0829E40011124E92DC29E60011124BF
:101E3000FD2D429FD00111243B2FF0903B06E090F6
:101E40003806A0913606B0913706FE1008C0AC01E6
:101E5000440F551F840F951F8A0F9B1F14C0880FB6
:101E6000991F880F991F8A0F9B1F472F5527662799
:101E70007727DC01AF0DB11D222321F0429FA00185
:101E80001124452F4C9320913806DC01A20FB11D7F
:101E9000EC9320913906DC01A20FB11DFC93209137
:101EA0003A06FC01E20FF11D3083FF90EF90DF90C6
:101EB000CF90BF90AF909F908F900895EF92FF9238
:101EC0000F931F93CF93DF9300D000D0CDB7DEB731
:101ED0007C018B01FA018081882359F07A83698320
:101EE00087ED92E09C838B83BA01CE0101960E941C
:101EF0004B131A8309838AED92E09C838B83B7018D
:101F0000CE0101960E944B13E0911206F091130648
:101F1000309711F0C8010995E0911406F09115066B
:101F2000309711F0C80109950F900F900F900F9006
:101F3000DF91CF911F910F91FF90EF900895FC01D9
:101F400077FF0BC070956095509541955F4F6F4F2F
:101F50007F4F81E0211180E0282F478350876187E0
:101F60007287238720830895FC01EE57FF4F20815D
:101F70003181620F731F6138710538F42E5F3F4F56
:101F800071836083820F931F089580E090E008952D
:101F9000FC0126AD37AD620F731F6D33710538F448
:101FA0002E5F3F4F77AF66AF820F931F089580E09B
:101FB00090E008950F931F93CF93DF938B01FC0163
:101FC000C281D381209759F0B8018A819B810E94F8
:101FD0001D27892B39F00990D881C02DF3CF80E0DF
:101FE00090E001C0CE01DF91CF911F910F91089534
:101FF000DB01109749F0ED91FC9111970190F08170
:10200000E02DBC01CD01099480E090E00895CF93CC
:10201000DF93EC01BC0184E090E00E94F80FFC012A
:10202000009729F0D183C0831382128202C082E517
:1020300093E0DF91CF910895CF93DF93EC018881F6
:102040009981DC01ED91FC910190F081E02D0995E1
:102050002A813B81820F931F9B838A83DF91CF91DB
:102060000895FF920F931F93CF93DF93EC018B01A1
:10207000672B91F461EC72E0888199810E94A4073A
:102080002A813B81820F931F9B838A83DF91CF91AB
:102090001F910F91FF90089562E2CE010E941C10E3
:1020A000F80161918F01662351F0EEE4F1E0F080D8
:1020B000FF2099F39181961759F03296F8CF62E29A
:1020C000CE01DF91CF911F910F91FF900C941C10C6
:1020D0006CE5CE010E941C106F2DDFCF2F923F9236
:1020E0004F925F926F927F928F929F92AF92BF9228
:1020F000CF92DF92EF92FF920F931F93CF93DF93D4
:10210000CDB7DEB7A2970FB6F894DEBF0FBECDBF36
:10211000FC01EC5BFF4F208133E03227DC01A30F91
:10212000B11D14966C932F5F2083203409F0BEC13B
:10213000319680809180A280B38089869A86AB8612
:10214000BC863496A080B180C280D380AD86BE8626
:10215000CF86D88A3496C080D180E280F380C98A45
:10216000DA8AEB8AFC8A3496E080F180028113815E
:10217000ED8AFE8A0F8B188F34960081118122819F
:102180003381098F1A8F2B8F3C8F0D8F1E8F2F8FCE
:1021900038A329853A854B855C852D833E834F8303
:1021A0005887CD84DE84EF84F8884D895E896F89F5
:1021B000788D49835A836B837C8309891A892B899B
:1021C0003C89212C312C522C50E125163104C8F4C5
:1021D00049815A816B817C8140275127622773276F
:1021E0004C215D216E217F2189809A80AB80BC804B
:1021F000482559256A257B25475656486D47754A17
:102200009CC0422D4F703C0154E0459F600C711CF6
:102210001124D1011D96AF70BB271196AA0FBB1FC9
:10222000AA0FBB1FA80FB91FF1013896EF70FF2747
:102230003196EE0FFF1FEE0FFF1FE80FF91F8D9075
:102240009D90AD90BC904081518162817381482501
:1022500059256A257B25D30114968D909D90AD90CC
:10226000BC901797482559256A257B25F1013296A0
:10227000EF70FF273196EE0FFF1FEE0FFF1FE80FE5
:10228000F91F80809180A280B380482559256A2556
:102290007B25440F551F661F771F411DF3014483A3
:1022A000558366837783F3E1F21508F091CF57E207
:1022B000852E821488F049815A816B817C81402768
:1022C0005127622773274C255D256E257F254F55A5
:1022D00054416642714931C04BE3942E9214E8F0A8
:1022E000B701A601402B512B622B732B89809A805A
:1022F000AB80BC80482159216A217B2146015701CE
:1023000080229122A222B322482959296A297B29B5
:1023100044525344644E704710C049815A816B81C6
:102320007C8140275127622773274C255D256E2528
:102330007F254A525E436D497543F52DFF705C0160
:10234000A4E0FA9FA00CB11C1124BAA2A9A24D804E
:102350005E806F807884EBE176946794579447941D
:10236000EA95D1F78D809E80AF80B884F5E0880C27
:10237000991CAA1CBB1CFA95D1F784289528A6287D
:10238000B728E9A1FAA14480558066807780840C43
:10239000951CA61CB71C480D591D6A1D7B1D8D8CF4
:1023A0009E8CAF8CB8A0480D591D6A1D7B1D46013F
:1023B0005701A2E0B694A79497948794AA95D1F771
:1023C00026013701BEE1440C551C661C771CBA95EA
:1023D000D1F7482859286A287B28AFEF2A1A3A0AE9
:1023E000CD80DE80EF80F88489809A80AB80BC80CD
:1023F0008D8E9E8EAF8EB8A2A0E52A16310459F0BC
:102400004D835E836F83788709831A832B833C8394
:1024100093018201D8CEFC01EB5BFF4F89849A8443
:10242000AB84BC84480D591D6A1D7B1D40835183BC
:10243000628373833496B701A601AD84BE84CF84D2
:10244000D8884A0D5B1D6C1D7D1D408351836283BE
:1024500073833496C988DA88EB88FC884C0C5D1C41
:102460006E1C7F1C408251826282738234964D8939
:102470005E896F89788D040F151F261F371F008313
:10248000118322833383349649815A816B817C8105
:10249000898C9A8CAB8CBC8C480D591D6A1D7B1D98
:1024A000408351836283738371971082A2960FB623
:1024B000F894DEBF0FBECDBFDF91CF911F910F917A
:1024C000FF90EF90DF90CF90BF90AF909F908F9054
:1024D0007F906F905F904F903F902F900895262FA0
:1024E000FC01E75AFF4F40815181628173814F5F48
:1024F0005F4F6F4F7F4F4083518362837383622F9F
:102500000E946E1081E090E00895DC011496ED9138
:10251000FC911597908116963C91832F8095982376
:1025200020E080E030FF06C060FF02C0806801C08C
:102530008F776695273011F0869536952F5F283076
:1025400089F7892B808308951F920F920FB60F92FF
:1025500011241F932F933F934F935F936F937F9318
:102560008F939F93AF93BF93CF93DF93EF93FF939B
:10257000C0910B04D0910C04209709F454C08F81B2
:102580009885A985BA85181619061A061B060CF037
:1025900048C08B81811145C08F819885A985BA85F6
:1025A0000197A109B1098F839887A987BA879E816E
:1025B000EC81FD81308128E080E090FF08C030FF91
:1025C00002C0886001C0877F913009F086953695FA
:1025D0009695215091F7823051F028F0843061F0C7
:1025E000883071F016C08B85813091F40DC08B85D9
:1025F000813061F011E00DC08B85813029F408C075
:102600001B85113019F405C012E003C014E001C0AD
:1026100018E0612FCE010E9485120980DA81C02D59
:10262000ABCF60E0F7CFFF91EF91DF91CF91BF91FA
:10263000AF919F918F917F916F915F914F913F915A
:102640002F911F910F900FBE0F901F901895DC01D6
:10265000FB018081869586958C9380818370918122
:1026600092959F7020E1829F900D112411969C936A
:10267000119791819F70990F990F2281229526952C
:1026800026952370920F12969C93129782818F73D6
:1026900013968C930895CF92DF92EF92FF920F934F
:1026A0001F93CF93DF93EC016B010A811B81E880BC
:1026B000F980B801C7010E94DA0FFC01892B41F4AF
:1026C000C7010E94030AFC01892B41F01383028396
:1026D00082E090E095838483D782C682CE01DF9129
:1026E000CF911F910F91FF90EF90DF90CF900895C1
:1026F000CF92DF92EF92FF924091290650912A06E5
:1027000060912B0670912C06452B462B472BE1F44C
:1027100040911D0650911E0660911F067091200683
:10272000452B462B472B81F4FC0124A521110CC01D
:10273000C1A8D2A8E3A8F4A80E94AD0921E0C6165A
:10274000D706E806F90608F020E0822FFF90EF9008
:10275000DF90CF900895CF93DF93EC018D8988238C
:1027600029F0CE010E9478138823D9F3DF91CF910D
:102770000895CF93DF9381E10E945A08EC0180E134
:102780000E945A0821E0892B09F020E0CD2B29F482
:10279000211106C082E090E005C0822F90E002C0C7
:1027A00083E090E0DF91CF9108950F931F93CF9333
:1027B0008C01262FC42F80912206861749F0F8013C
:1027C0004385548560E070E082E296E00E949F0FAE
:1027D000809116068C1769F0F8014385548560E0F6
:1027E00070E02C2F86E196E0CF911F910F910C9411
:1027F0009F0FCF911F910F910895CF92DF92EF928B
:10280000FF920F931F93CF93DF93EC018B0140E076
:1028100060E00E94D513B801110F880B990B0E943C
:10282000E7226B017C0128A539A54AA55BA50E947A
:1028300046232D853E854F8558890E944623298948
:102840003A894B895C890E9446230E946F25AB011F
:10285000BC0120E082E296E00E949F0F28A539A5E6
:102860004AA55BA5C701B6010E9446232D853E857A
:102870004F8558890E94462329893A894B895C896A
:102880000E9446230E946F25AB01BC0120E086E137
:1028900096E00E949F0FCE01DF91CF911F910F9183
:1028A000FF90EF90DF90CF900C94AB13CF92DF921C
:1028B000EF92FF920F931F93CF93DF93EC018B0165
:1028C00041E061E00E94D513B801110F880B990B0C
:1028D0000E94E7226B017C0128A539A54AA55BA5CA
:1028E0000E9446232D853E854F8558890E944623A8
:1028F00029893A894B895C890E9446230E946F2569
:10290000AB01BC0121E082E296E00E949F0F28A566
:1029100039A54AA55BA5C701B6010E9446232D85AE
:102920003E854F8558890E94462329893A894B89DB
:102930005C890E9446230E946F25AB01BC0121E007
:1029400086E196E00E949F0FCE01DF91CF911F910B
:102950000F91FF90EF90DF90CF900C94AB13CF923C
:10296000DF92EF92FF920F931F93CF93DF93EC01CF
:102970008B0141E060E00E94D513B801110F880B74
:10298000990B0E94E7226B017C012CA13DA14EA175
:102990005FA10E9446232D853E854F8558890E9460
:1029A00046230E946F25AB01BC0120E082E296E045
:1029B0000E949F0F2CA13DA14EA15FA1C701B601AE
:1029C0000E9446232D853E854F8558890E944623C7
:1029D0000E946F25AB01BC0121E086E196E00E94D8
:1029E0009F0FCE01DF91CF911F910F91FF90EF903C
:1029F000DF90CF900C94AB13CF92DF92EF92FF92C7
:102A00000F931F93CF93DF93EC018B0140E061E0C4
:102A10000E94D513B801110F880B990B0E94E72271
:102A20006B017C012CA13DA14EA15FA10E94462318
:102A30002D853E854F8558890E9446230E946F252B
:102A4000AB01BC0121E082E296E00E949F0F2CA125
:102A50003DA14EA15FA1C701B6010E9446232D856D
:102A60003E854F8558890E9446230E946F25AB0101
:102A7000BC0120E086E196E00E949F0FCE01DF912D
:102A8000CF911F910F91FF90EF90DF90CF900C941A
:102A9000AB13BF92CF92DF92EF92FF920F931F93EF
:102AA000CF93DF93CDB7DEB727970FB6F894DEBF8D
:102AB0000FBECDBFFC019681992309F4C0C06B0104
:102AC0008F0191509683828193810E947D0AF80143
:102AD00093838283FC0180818B3521F08B3709F44D
:102AE0007CC08CC0F801E080F180B70184E090E008
:102AF0000E94F80F009739F0FC01F182E082138206
:102B000012827C0104C026E5E22E23E0F22E6BE562
:102B1000C8010E94AC0A882309F44CC06DE5C801C5
:102B20000E94AC0A81114AC096E0B92E1A8219821D
:102B3000BE016F5F7F4FC8010E9449158823D1F104
:102B4000F7016081718188E090E00E94F80FDC015C
:102B5000892B39F011961C921E9213961C921E928C
:102B60001297F701228133812115310551F0F901C6
:102B700080819181009711F09C01F9CFB183A083EE
:102B800003C0F701B383A2831097A1F0FE01319631
:102B900012968B2D01900D928A95E1F76DE5C80193
:102BA0000E94AC0A81110AC06CE2C8010E94AC0A02
:102BB0008111BCCF86E5E82E83E0F82EF7018081F5
:102BC0009181892B11F420E035C085E090E0F60179
:102BD00091838083F382E2820FC0C8010E94CE0AF3
:102BE000FC0120813181232B71F326E030E0F601D6
:102BF000318320839383828321E01CC021E08732CC
:102C000019F0823209F020E0C8012F830E94260AC1
:102C10002F810097C1F2222331F042E050E0F6010B
:102C20005183408305C021E030E0F60131832083E9
:102C300093838283F80186818F5F868301C020E0C1
:102C4000822F27960FB6F894DEBF0FBECDBFDF915F
:102C5000CF911F910F91FF90EF90DF90CF90BF9099
:102C600008954F925F926F927F928F929F92AF9250
:102C7000BF92CF92DF92EF92FF920F931F93CF9369
:102C8000DF93CDB7DEB7CF50D1400FB6F894DEBF9B
:102C90000FBECDBF7C016E0125E8C20ED11C89E7B5
:102CA00091E0F60191838083C95FDE4F198218821B
:102CB000C750D1409A838983CD57DF4F198218823C
:102CC000C358D040CE0101960E9407108C01C75F07
:102CD000DE4FD982C882C950D140E114F10411F00D
:102CE000C70102C08AEB91E0C55FDE4F99838883FC
:102CF000CB50D140C35FDE4FF982E882CD50D14046
:102D00008AE0C15FDE4F8883CF50D140CE01875F1C
:102D10009E4F0E94CE0A6C01FC0180819181892B1B
:102D200009F4D9C061EE72E0C6010E94DA0F009783
:102D300009F4F0C004960E943F0B4C0167ED72E06D
:102D4000C6010E94DA0F009729F004960E943F0BFB
:102D50007C0104C05AEBE52E51E0F52E6090100680
:102D60007090110647E3442E45E0542EA12CB12C5F
:102D7000A614B7040CF098C0F20160817181C401FF
:102D80000E941D27F7E04F0E511C892B19F4B7FE46
:102D900005C08AC02FEFA21AB20AEACF87E08A9D47
:102DA00090018B9D300D112424513B4FF901EF5AB6
:102DB000FF4FB080BB2021F1329740815181329783
:102DC000CA0195958795209135053091360540FFCC
:102DD0000AC0D901A80FB91F6D917C914081518122
:102DE000FB01E40FF51F0190F081E02DA801B60171
:102DF000820F931F0995A701B80188EB92E01DC0CF
:102E0000B090EC04BB20E1F0C75FDE4F198308836C
:102E1000C950D14089E991E0C55FDE4F998388832D
:102E2000CB50D14065EE72E0CE01875F9E4F0E948D
:102E30004B13A701B8018EE293E00E945E0F6BC0B6
:102E4000F901E15BFF4F40815181B901635B7F4F25
:102E5000A0913505B0913605CA019595879540FD3D
:102E600002C0FB010CC09D01280F391FF9014081F0
:102E70005181FB0120813181FA01E20FF31F208192
:102E80003181A801B6018A0F9B1FF9010995B7018D
:102E90008AE295E00E94262781E08093EC04A70156
:102EA000B80183E093E031C0C75FDE4F1983088328
:102EB000C950D14089E991E0C55FDE4F998388838D
:102EC000CB50D1406CE073E0CE01875F9E4F0E94F3
:102ED0004B13A70117C0C75FDE4F19830883C95082
:102EE000D14089E991E0C55FDE4F99838883CB505B
:102EF000D14063E273E0CE01875F9E4F0E944B1387
:102F00004AEB51E0B8018EE293E00E945E0FBB24D1
:102F1000B39401C0B12C8B2DC15FDE4F0FB6F89476
:102F2000DEBF0FBECDBFDF91CF911F910F91FF90FC
:102F3000EF90DF90CF90BF90AF909F908F907F9059
:102F40006F905F904F900895EF92FF920F931F93B1
:102F5000CF93DF938C01EB01FC01E080F18069E904
:102F600071E0C7010E94DA0FFC01892B51F4C701FF
:102F70000E94030AFC01892B81F089E991E0938387
:102F8000828384E090E095838483AE01DD0F660B3D
:102F9000770B4683578360877187C801DF91CF9194
:102FA0001F910F91FF90EF900895CF92DF92EF92D3
:102FB000FF920F931F93CF93DF93EC016A017B0184
:102FC0000881198169E971E0C8010E94DA0FFC01EA
:102FD000892B51F4C8010E94030AFC01892B61F07E
:102FE00089E991E09383828389E090E095838483EB
:102FF000C682D782E086F186CE01DF91CF911F9104
:103000000F91FF90EF90DF90CF900895CF93DF93D3
:10301000CDB7DEB7CC55D1090FB6F894DEBF0FBEE1
:10302000CDBF789484B5826084BD84B5816084BD51
:1030300085B5826085BD85B5816085BD80916E0056
:10304000816080936E001092810080918100826087
:1030500080938100809181008160809381008091C4
:1030600080008160809380008091B10084608093B3
:10307000B1008091B00081608093B00080917A00AF
:10308000846080937A0080917A00826080937A00D5
:1030900080917A008E7F80937A0080917A00806898
:1030A00080937A001092C10082E0809343062BEB5C
:1030B00031E03F932F931F928F938FEB91E09F937B
:1030C0008F9384E496E09F938F930E943C2780E047
:1030D00090E0A0E0B1E48093670690936806A09327
:1030E0006906B0936A0686EA9AE0A6E0B1E48093A6
:1030F0006B0690936C06A0936D06B0936E06E091FC
:103100000B04F0910C040FB6F894DEBF0FBECDBFD8
:103110003097B9F5F89410928000109281001092C7
:1031200085001092840080EC9DE590938900809347
:103130008800809181008860809381008091810067
:1031400081608093810080916F00826080936F0026
:10315000789461E083E00E94350962E081E10E9499
:10316000350962E080E10E94350910925F061092F5
:103170005E0680E090E00E940724803F09F0BBC01B
:103180001CC0848195818532910529F494B1868192
:10319000892B84B90EC08832910529F497B18681B4
:1031A000892B87B906C08B9721F49AB18681892B28
:1031B0008AB90180F281E02DABCF81E090E00E94DE
:1031C00007248D3009F097C082E090E00E94072428
:1031D000813009F090C002E010E0C8010E9407248D
:1031E000F801ED5BF94F80870F5F1F4F0D30110520
:1031F000A1F780914D06813009F07DC080914E0687
:1032000090914F06C29708F076C0C0905006D090BB
:103210005106E0905206F090530620E030E0A901FC
:10322000C701B6010E94A52518165CF420E030E025
:1032300040E05FE3C701B6010E94A5251816B4F06F
:103240005AC020E030E040E05FEBC701B6010E94C9
:10325000E02287FF50C020E030E040EC5FEBC70188
:10326000B6010E94A52518165CF045C020E030E0AC
:1032700040EC5FE3C701B6010E94E02287FF3BC03C
:10328000C0905406D0905506E0905606F090570630
:1032900020E030E0A901C701B6010E94A52518165B
:1032A0005CF420E030E040E05FE3C701B6010E943B
:1032B000A5251816B4F01FC020E030E040E05FEB19
:1032C000C701B6010E94E02287FF15C020E030E070
:1032D00040EC5FEBC701B6010E94A525181664F10A
:1032E0000AC020E030E040EC5FE3C701B6010E9475
:1032F000E02287FD21C081E080934D068EE090E0C2
:1033000090934F0680934E0680E090E0A0E8BFE3E4
:103310008093500690935106A0935206B0935306A3
:103320008093540690935506A0935606B093570683
:1033300083E496E00E94E40461E08DE00E94350998
:103340008091340687FD08C061E00E94350960E085
:10335000809134060E94830881E080932F0600E06C
:1033600010E080913006909131060817190730F46B
:1033700040E050E0BA01C8010E94FB0E8091360681
:1033800090913706892B11F00E94660D0F5F1F4F39
:103390000830110531F781E08093580683E496E008
:1033A000909336058093350542E356E060E070E087
:1033B00021E085EC91E00E94320D46E551E060E0AD
:1033C00070E021E08DEC91E00E94320D46E056E085
:1033D00060E070E021E082ED91E00E94320D4EE469
:1033E00051E060E070E021E089ED91E00E94320D53
:1033F00047E451E060E070E021E08FED91E00E9451
:10340000320D42E351E060E070E021E086EE91E0B1
:103410000E94320D40E854E060E070E021E08BEE65
:1034200091E00E94320D4AE354E060E070E021E058
:1034300088EF91E00E94320D46E554E060E070E0D4
:1034400021E086E092E00E94320D4EE154E060E01F
:1034500070E021E082E192E00E94320D4CED55E0F7
:1034600060E070E021E08FE192E00E94320D41E0E7
:1034700054E060E070E021E080E392E00E94320DD1
:1034800044EE53E060E070E021E080E492E00E94CE
:10349000320D49E555E060E070E021E080E592E022
:1034A0000E94320D4EE355E060E070E021E08EE5D1
:1034B00092E00E94320D4CEC53E060E070E020E0BE
:1034C0008CE692E00E94320D44EB53E060E070E045
:1034D00020E084E792E00E94320D4CE953E060E086
:1034E00070E020E08DEA91E00E94320D44E853E064
:1034F00060E070E020E088EA91E00E94320D4CE04C
:1035000053E060E070E020E089E792E00E94320D35
:103510004FE955E060E070E020E08FE792E00E9424
:10352000320D42EA52E060E070E020E08AE892E08A
:103530000E94320D4EE251E060E070E020E08EE843
:1035400092E00E94320D4AE251E060E070E020E03B
:1035500085E992E00E94320D47E551E060E070E0BD
:1035600020E08DE992E00E94320D46E055E060E0F7
:1035700070E020E082EA92E00E94320DE0911D04AA
:10358000F0911E0482E08083E0911904F0911A0406
:103590001082E0911B04F0911C0480E18083109262
:1035A0002504E0912104F091220486E08083E091DB
:1035B0001F04F0912004808180618083E0911F04CA
:1035C000F0912004808188608083E0911F04F09155
:1035D0002004808180688083E0911F04F0912004A2
:1035E00080818F7D80838091120690911306892BB4
:1035F00049F08091140690911506892B81F481E0A1
:1036000090E002C080E090E0FC01ED56FF4FEE0F2D
:10361000FF1FE451FB4F86EC94E09183808381E0AF
:103620008093790671E4472E512C4C0E5D1E14E1F7
:10363000410E511C6E0126E5C20ED11C160134E06C
:10364000230E311C0E94AD0924E630E040E050E03A
:103650000E94AF2549015A011AE0E12EF12C00E049
:1036600010E0CA01B901A80197010E94AF25672B9C
:10367000682B692B89F0C501B40162507109810979
:103680009109A80197010E94AF2521E0672B682BC3
:10369000692B19F020E001C021E0622F8DE00E942B
:1036A0008308809165068823D9F08091290690913E
:1036B0002A06A0912B06B0912C06892B8A2B8B2BE6
:1036C00009F081C080911D0690911E06A0911F06F1
:1036D000B0912006892B8A2B8B2B09F45DC073C017
:1036E00080916606882309F46EC081E10E945A0821
:1036F0008C0180E10E945A0820915E0630915F069D
:103700002115310579F5012B19F483E090E004C00F
:10371000892B69F481E090E090935F0680935E06C8
:1037200062E370E083E496E00E94AF144CC08091A5
:10373000290690912A06A0912B06B0912C06892B80
:103740008A2B8B2B09F03FC080911D0690911E069D
:10375000A0911F06B0912006892B8A2B8B2B09F490
:1037600057C331C08091290690912A06A0912B065B
:10377000B0912C06892B8A2B8B2B29F580911D0665
:1037800090911E06A0911F06B0912006892B8A2BCE
:103790008B2B09F418C317C08EE00E9471098C01AD
:1037A0008FE00E947109A801481B590BCA014630DD
:1037B00051050CF4F5C280914306813009F4FAC238
:1037C000823009F4FAC2809178068823C9F080918A
:1037D000290690912A06A0912B06B0912C06892BE0
:1037E0008A2B8B2B69F480911D0690911E06A09167
:1037F0001F06B0912006892B8A2B8B2B09F418C346
:103800008CE491E09A83898321961FAE1EAE2197A6
:10381000CE0101967C010E9407108C01809159060F
:10382000882309F448C083E496E00E94B9134091CC
:103830005B06042E000C550B84179507E1F180936D
:103840005B0682309105F9F08330910579F001979C
:1038500091F523961FAF0EAF239789E991E0259646
:103860009FAF8EAF25976DEA71E019C023961FAF09
:103870000EAF239789E991E025969FAF8EAF2597EC
:1038800063EB71E00CC023961FAF0EAF239789E95D
:1038900091E025969FAF8EAF259768EA71E0CE0143
:1038A0008F5B9F4F0E944B1345E952E0B80181EBBB
:1038B00092E00E945E0F80915A06882359F18EE0B3
:1038C0000E9471095C018FE00E947109A81AB90A6F
:1038D00080915C0690915D06A816B906B9F0239612
:1038E0001FAF0EAF239789E991E025969FAF8EAF6A
:1038F0002597B501CE018F5B9F4F0E94A4174EE81C
:1039000052E0B80181EB92E00E945E0FB0925D063A
:10391000A0925C0680917906882309F41CC28DE090
:1039200094E00E94AB064C01181619060CF0FAC17F
:10393000A12CB12C0E94AD0960937A0670937B068E
:1039400080937C0690937D068DE094E00E9489062A
:10395000182F809143062091320730913307813030
:1039600009F0C4C1C90101969093330780933207CF
:10397000F901ED5BF94F13AF843B910521F41092EF
:103980003307109232070091320710913307101657
:1039900011060CF05EC12091AA043091AB042330D3
:1039A000310509F456C1F801ED5BF94F82AD8A305B
:1039B00019F08D3009F04DC18091EB048F5F809339
:1039C000EB042230310509F08CC1843009F089C143
:1039D00083E090E09093AB048093AA0444E150E02C
:1039E00067EB70E08FE993E00E94A2221092B3038C
:1039F0001092B4031092B5031092B60310929E0376
:103A00006CEA74E08AE593E00E94A40760E88AE526
:103A100093E00E946E1080919E0360E08833B9F7B6
:103A20008AE593E00E946E1060E08AE593E00E94D0
:103A30006E1060E08AE593E00E946E108091B303FF
:103A40009091B403A091B503B091B603BC01CD0130
:103A50002DE196958795779567952A95D1F78AE513
:103A600093E00E946E108091B3039091B403A091F3
:103A7000B503B091B603BC01CD0135E196958795AC
:103A8000779567953A95D1F78AE593E00E946E1095
:103A90008091B3039091B403A091B503B091B603A4
:103AA000BC01CD014DE096958795779567954A9530
:103AB000D1F78AE593E00E946E108091B303909154
:103AC000B403A091B503B091B603BC01CD0155E09C
:103AD00096958795779567955A95D1F78AE593E0FE
:103AE0000E946E106091B303660F660F660F8AE541
:103AF00093E00E946E10EFE9F3E0608171818281B2
:103B000093810E94CE25619371938193919393E069
:103B1000E33BF90791F7AFE9B3E0FE01EF5BFF4F3D
:103B20003F018D918193E415F505D9F766961FAE97
:103B3000669700E010E080E090E06414750459F1AD
:103B40009C012F5F3F4FD3014D913D01EAE5F0E02D
:103B5000EC0FFD1FE80FF91F408323303105C9F436
:103B6000BE01665A7F4FC6010E942713D601C701C6
:103B7000800F911FED91F0E0E95FFE4F2081FC0185
:103B80002193CF01A215B305A9F70C5F1F4F20E0C9
:103B900030E0C901D2CF98013C010097D1F18330C8
:103BA00091054CF4EAE5F0E0EC0FFD1FE80FF91F7A
:103BB00010820196F4CFBE01665A7F4FC6010E9463
:103BC0002713C701800F911FD601ED91F0E0E95F47
:103BD000FE4F2081FC012193CF019D012C193D094D
:103BE0006216730694F70F5F1F4F060D171DF7013E
:103BF000E00FF11F6E187F08601A710A4DE39F01F4
:103C00002E193F09C3018E0F9F1F039714F4419390
:103C1000F6CFF701E20FF31F108260ED70E08091A4
:103C2000E9049091EA040E948007B7018091E904B9
:103C30009091EA040E94A4076BEC70E08091E90483
:103C40009091EA040E9480071092EB0483E090E0D8
:103C500011C01092EB04073111056CF147E150E0FF
:103C600062E371E08EE796E00E94CA22892B39F464
:103C700081E090E09093AB048093AA0432C00B32B1
:103C80001105C9F443E150E063EA70E08EE796E085
:103C90000E94CA22892B79F448E150E061E976E07C
:103CA0008CEA94E00E942D2702E010E01093AB0410
:103CB0000093AA0416C08091AA049091AB048330AB
:103CC000910519F519821A821B821C820730110591
:103CD0000CF0BFC082309105D1F48EE796E00E94CF
:103CE0003116109233071092320714C01D3019F0AC
:103CF0001A3009F02DC1232B09F42AC18EE796E072
:103D00000E9431168111EDCF23C186E090E0049727
:103D1000029738F31FEFA11AB10AA814B90409F0E9
:103D200009CE19C00E94AD0900917A0610917B0658
:103D300020917C0630917D06DC01CB01801B910B2C
:103D4000A20BB30B843F9140A105B10520F0109266
:103D50003307109232078091EC048823F1F083E45A
:103D600096E00E9478138823C1F08091EC048823A8
:103D7000A1F01092EC048CE491E09A83898321965F
:103D80001FAE1EAE2197C7010E9407104AE255E000
:103D9000BC0188EB92E00E945E0F0E944B0752CC60
:103DA0008B3F9F4F6CF480914306813031F082301D
:103DB00009F009CD61E070E015C061E070E023C05A
:103DC00065E070E027C02230310569F184F02330CE
:103DD000310529F584E090E090935F0680935E06BC
:103DE0006AE570E083E496E00E94FD13ECCC21309C
:103DF000310509F0E8CC82E090E090935F06809373
:103E00005E066AE570E083E496E00E945614DBCC1F
:103E100068EE73E083E496E00E94FC14D4CC243076
:103E2000310509F0D0CC10925F0610925E06CBCC23
:103E300041E080911606813009F440E061E0809114
:103E40002206813009F460E083E496E00E94D513F5
:103E5000D7CC70917E0677FF78C07F70713019F0F3
:103E6000783009F072C0E0917F066E2F6F77262FB1
:103E700030E0A9014B5F5F4F401751070CF02ACF8C
:103E80006D3708F062C0E7FF0CC08091800689831F
:103E9000809181068A83809182068B83809183063C
:103EA0008C83783019F0E4E8F6E033C08091E904BF
:103EB0009091EA04DC01ED91FC910190F081E02DFC
:103EC00068E809958091E9049091EA04DC01ED919C
:103ED000FC910190F081E02D62E009958091E90468
:103EE0009091EA04DC01ED91FC910190F081E02DCC
:103EF00063E009958091E9049091EA04DC01ED9179
:103F0000FC910190F081E02D69EE099584E090E04C
:103F1000E1CE8E2F04E816E0801B861778F44191DD
:103F20003F01B7E06B1A710883708701080F111DFC
:103F3000D8018C918427D3018C93EBCFF901ED5BF1
:103F4000F94F13AE82E090E0C5CE85E090E0C2CE9E
:103F500080913207909133079C012F5F3F4F309340
:103F6000330720933207FC01ED5BF94F13AF243B7D
:103F7000310521F41092330710923207E091320795
:103F8000F0913307ED5BF94F13AEC4CE10921004DD
:103F900010920F0488EE93E0A0E0B0E0809311044B
:103FA00090931204A0931304B093140481E691E05B
:103FB00090930E0480930D0485EC90E090931A0486
:103FC0008093190484EC90E090931C0480931B046C
:103FD00080EC90E090931E0480931D0481EC90E0AF
:103FE0009093200480931F0482EC90E0909322042D
:103FF0008093210486EC90E0909324048093230422
:10400000109226041092270410922804109229047A
:1040100010925303109252031092550310925403BE
:10402000109257031092560310925903109258039E
:1040300010925D0310925C0381E791E090935B0323
:1040400080935A0310922F061092350610923C0668
:1040500010923D0610923E0610923F0681E080933A
:104060003B06809338061092390692E090933A0608
:1040700080932E0688E190E0909333068093320679
:104080000E94E2259093370680933606009761F0F0
:1040900028E1FC0111922A95E9F788E090E09093DD
:1040A00031068093300608C0109233061092320613
:1040B000109231061092300683E08093340680918E
:1040C0002F06882341F061E083E00E94350960E01B
:1040D00083E00E948308EBEEF1E0E491F0E0EE0F64
:1040E000FF1FE252FE4F8591949190934106809379
:1040F0004006EDECF1E0E491E093420685E290E0C9
:1041000090932706809326068DE1809328061092CF
:10411000290610922A0610922B0610922C06109255
:10412000250660E082E296E00E948512E0910B0491
:10413000F0910C04309759F081819281009711F031
:10414000FC01FACF82E296E09283818306C082E28C
:1041500096E090930C0480930B048BE290E0909394
:104160001B0680931A0680EF80931C0610921D0692
:1041700010921E0610921F06109220061092190629
:1041800060E086E196E00E948512E0910B04F091D8
:104190000C04309759F081819281009711F0FC0155
:1041A000FACF86E196E09283818306C086E196E0AD
:1041B00090930C0480930B041092EC0410922A0547
:1041C0001092AB041092AA046DE871E08CEA94E0BE
:1041D0000E94AB228DE094E09093EA048093E9047E
:1041E0001092790681E0809358060E94AD09609391
:1041F0006006709361068093620690936306109246
:104200007806109274061092750610927606109237
:10421000770608958091360690913706009711F041
:104220000E9477268091340687FD03C060E00C94DD
:1042300035090895A0E0B0E0E0E2F1E20C944E24EC
:10424000EC017B016115710519F0DB018D939C93E5
:104250008E010F5F1F4F7880872D90E00E9499227A
:10426000892B11F0E801F4CFBDE27B1205C00F5F8E
:104270001F4F7980C1E008C0EBE27E1204C08E01BE
:104280000E5F1F4F7980C0E06801F1E0CF1AD108BE
:1042900043E050E060E770E0C6010E94B222892B43
:1042A000F1F4680122E0C20ED11C45E050E06BE65B
:1042B00070E0C6010E94B222892B21F4680187E0D8
:1042C000C80ED11CE114F10419F0D701CD92DC9293
:1042D000C111FFC060E070E080E89FE703C143E0E8
:1042E00050E068E670E0C6010E94B222892B51F4CA
:1042F000E114F10409F4F2C00E5F1F4FF7011183BE
:104300000083ECC0680160E070E0CB0100E010E0E9
:10431000F601D0EDD70DDA3058F52C2F2260622E41
:104320002C2F2870C2FF05C0211128C00F5F1F4F1E
:1043300025C0222311F001501109A5E0B0E09B0136
:10434000AC010E943F244B015C01880C991CAA1C03
:10435000BB1CC501B4016D0F711D811D911D683914
:10436000A9E97A078A07A9E19A0740F0C66005C063
:10437000DE3F51F4C3FD44C0C8606C2EBFEFCB1AC2
:10438000DB0A7080C62DC4CF2D2F2F7D2531C1F5BE
:1043900040814D3211F4C06106C04B3221F031969C
:1043A00021E030E006C03296D60111964C9122E011
:1043B00030E0A0EDA40FAA3018F0E21BF30B20C0F0
:1043C00040E050E04038BCE05B075CF49A01220F0B
:1043D000331F220F331F420F531F440F551F4A0F25
:1043E000511D3196DF0111972C91A0EDA20FAA303B
:1043F00048F3C4FF03C0519541955109040F151F9F
:10440000C1FF07C0E114F10421F03197D701ED930A
:10441000FC930E94E522C370C33019F06B017C014C
:1044200006C06B017C01F7FAF094F7F8F09420E0F5
:1044300030E0A901C701B6010E94E022882309F4F7
:1044400045C017FF06C0119501951109C7E8D0E0D6
:1044500002C0CFE9D0E05E01B8E1AB1AB108460175
:10446000BE2DAF2D90E2E92EF12C0E151F0584F024
:10447000FE012591359145915491B4018B2F9A2FCE
:104480000E9446234B01B82FA92F0E191F09EDCF0B
:104490002497F594E794CA15DB0539F76401EB2EF0
:1044A000FA2E8E2D880F8F2D881F8F3F49F020E028
:1044B00030E0A901C701B6010E94E022811106C0C7
:1044C00082E290E09093350780933407C701B601EC
:1044D00009C060E070E080E89FEF04C060E070E039
:1044E00080EC9FE7CDB7DEB7EEE00C946A24662738
:1044F00077270C941A21FC0188279927E8942191A9
:104500002032E9F3293010F02E30C8F32B3241F07D
:104510002D3239F4689404C00E94D822820F911D74
:10452000219120532A30C0F31EF4909581959F4F1E
:10453000089591110C94B323803219F0895085505D
:10454000C8F70895FB01DC0102C005900D924150AF
:104550005040D8F70895FB01DC0105900D92002032
:10456000E1F70895FB01DC014150504088F08D9146
:1045700081341CF08B350CF4805E659161341CF045
:104580006B350CF4605E861B611171F3990B089515
:10459000881BFCCFFB01DC014150504030F08D9175
:1045A0000590801919F40020B9F7881B990B08951C
:1045B0007AE0979F902D879F802D910D112408956B
:1045C0000E94222308F481E00895E89409C097FB33
:1045D0003EF490958095709561957F4F8F4F9F4FDA
:1045E0009923A9F0F92F96E9BB279395F69587951E
:1045F00077956795B795F111F8CFFAF4BB0F11F4E1
:1046000060FF1BC06F5F7F4F8F4F9F4F16C0882387
:1046100011F096E911C0772321F09EE8872F762FBD
:1046200005C0662371F096E8862F70E060E02AF0FE
:104630009A95660F771F881FDAF7880F96958795EA
:1046400097F90895990F0008550FAA0BE0E8FEEFBF
:1046500016161706E807F907C0F012161306E40746
:10466000F50798F0621B730B840B950B39F40A263F
:1046700061F0232B242B252B21F408950A2609F41D
:10468000A140A6958FEF811D811D08950E94592399
:104690000C94CD230E94BF2338F00E94C62320F043
:1046A000952311F00C94B6230C94BC2311240C9484
:1046B00001240E94DE2370F3959FC1F3950F50E013
:1046C000551F629FF001729FBB27F00DB11D639FC4
:1046D000AA27F00DB11DAA1F649F6627B00DA11D6A
:1046E000661F829F2227B00DA11D621F739FB00D10
:1046F000A11D621F839FA00D611D221F749F332780
:10470000A00D611D231F849F600D211D822F762F18
:104710006A2F11249F5750409AF0F1F088234AF0F5
:10472000EE0FFF1FBB1F661F771F881F9150504061
:10473000A9F79E3F510580F00C94B6230C940124F8
:104740005F3FE4F3983ED4F3869577956795B795E8
:10475000F795E7959F5FC1F7FE2B880F911D969502
:10476000879597F9089599278827089597F99F675E
:1047700080E870E060E008959FEF80EC08950024E9
:104780000A941616170618060906089500240A94B6
:1047900012161306140605060895092E0394000C3C
:1047A00011F4882352F0BB0F40F4BF2B11F460FFCB
:1047B00004C06F5F7F4F8F4F9F4F089557FD9058F4
:1047C000440F551F59F05F3F71F04795880F97FBD5
:1047D000991F61F09F3F79F087950895121613068F
:1047E0001406551FF2CF4695F1DF08C016161706BE
:1047F0001806991FF1CF86957105610508940895F3
:10480000E894BB2766277727CB0197F90895F99994
:10481000FECF92BD81BDF89A992780B50895262FC5
:10482000F999FECF1FBA92BD81BD20BD0FB6F89495
:10483000FA9AF99A0FBE01960895A1E21A2EAA1BC0
:10484000BB1BFD010DC0AA1FBB1FEE1FFF1FA21740
:10485000B307E407F50720F0A21BB30BE40BF50B3D
:10486000661F771F881F991F1A9469F760957095C6
:10487000809590959B01AC01BD01CF0108950E94E8
:104880008124A59F900DB49F900DA49F800D911D34
:10489000112408952F923F924F925F926F927F92D0
:1048A0008F929F92AF92BF92CF92DF92EF92FF9240
:1048B0000F931F93CF93DF93CDB7DEB7CA1BDB0BEC
:1048C0000FB6F894DEBF0FBECDBF09942A88398891
:1048D00048885F846E847D848C849B84AA84B98498
:1048E000C884DF80EE80FD800C811B81AA81B981A4
:1048F000CE0FD11D0FB6F894DEBF0FBECDBFED01B8
:104900000895A29FB001B39FC001A39F700D811DA8
:104910001124911DB29F700D811D1124911D0895C8
:104920005058BB27AA270E94A8240C94CD230E948C
:10493000BF2338F00E94C62320F039F49F3F19F4BA
:1049400026F40C94BC230EF4E095E7FB0C94B623FC
:10495000E92F0E94DE2358F3BA1762077307840712
:10496000950720F079F4A6F50C9400240EF4E09558
:104970000B2EBA2FA02D0B01B90190010C01CA0119
:10498000A0011124FF27591B99F0593F50F4503EC4
:1049900068F11A16F040A22F232F342F4427585FB6
:1049A000F3CF469537952795A795F0405395C9F7CE
:1049B0007EF41F16BA0B620B730B840BBAF0915086
:1049C000A1F0FF0FBB1F661F771F881FC2F70EC025
:1049D000BA0F621F731F841F48F4879577956795F8
:1049E000B795F7959E3F08F0B0CF9395880F08F0E4
:1049F0009927EE0F9795879508950E9411250C949D
:104A0000CD230E94C62358F00E94BF2340F029F412
:104A10005F3F29F00C94B62351110C9401240C949F
:104A2000BC230E94DE2368F39923B1F3552391F34D
:104A3000951B550BBB27AA2762177307840738F00D
:104A40009F5F5F4F220F331F441FAA1FA9F335D06A
:104A50000E2E3AF0E0E832D091505040E695001C1E
:104A6000CAF72BD0FE2F29D0660F771F881FBB1FD8
:104A7000261737074807AB07B0E809F0BB0B802DB6
:104A8000BF01FF2793585F4F3AF09E3F510578F0E2
:104A90000C94B6230C9401245F3FE4F3983ED4F3C6
:104AA000869577956795B795F7959F5FC9F7880FB6
:104AB000911D9695879597F90895E1E0660F771F08
:104AC000881FBB1F621773078407BA0720F0621B99
:104AD000730B840BBA0BEE1F88F7E09508950E94C4
:104AE00076256894B1110C94012408950E94E62360
:104AF00088F09F5798F0B92F9927B751B0F0E1F09F
:104B0000660F771F881F991F1AF0BA95C9F714C04E
:104B1000B13091F00E940024B1E008950C9400247B
:104B2000672F782F8827B85F39F0B93FCCF3869587
:104B300077956795B395D9F73EF4909580957095E4
:104B400061957F4F8F4F9F4F08950E94222308F455
:104B50008FEF08950E942223880B990B0895052E4C
:104B600097FB1EF400940E94C62557FD07D00E94B3
:104B70001D2407FC03D04EF40C94C6255095409597
:104B8000309521953F4F4F4F5F4F089590958095F9
:104B9000709561957F4F8F4F9F4F08956927962796
:104BA000692778278727782708950E948124B7FFEF
:104BB0000895821B930B0895EE0FFF1F0590F4914B
:104BC000E02D0994CF93DF938230910510F482E0B9
:104BD00090E0E0913807F091390720E030E0C0E044
:104BE000D0E0309711F14081518148175907C0F04A
:104BF0004817590761F482819381209719F09B83AC
:104C00008A832BC0909339078093380726C02115DB
:104C1000310519F04217530718F49A01BE01DF015C
:104C2000EF010280F381E02DDCCF2115310509F180
:104C3000281B390B2430310590F412968D919C91EC
:104C400013976115710521F0FB019383828304C0E2
:104C50009093390780933807FD01329644C0FD01D7
:104C6000E20FF31F81939193225031092D933C93CE
:104C70003AC02091360730913707232B41F4209119
:104C800003013091040130933707209336072091B8
:104C90000101309102012115310541F42DB73EB7D4
:104CA0004091050150910601241B350BE091360718
:104CB000F0913707E217F307A0F42E1B3F0B2817DC
:104CC000390778F0AC014E5F5F4F2417350748F085
:104CD0004E0F5F1F50933707409336078193919390
:104CE00002C0E0E0F0E0CF01DF91CF9108950F9393
:104CF0001F93CF93DF93009709F48CC0FC01329788
:104D0000138212820091380710913907011511059D
:104D100081F420813181820F931F209136073091D9
:104D200037072817390779F5F0933707E0933607E7
:104D300071C0D80140E050E0AE17BF0750F41296A2
:104D40002D913C911397AD012115310509F1D90140
:104D5000F3CF9D01DA013383228360817181860F55
:104D6000971F8217930769F4EC0128813981260F78
:104D7000371F2E5F3F4F318320838A819B8193832E
:104D80008283452B29F4F0933907E093380742C01A
:104D90001396FC93EE931297ED01499159919E0160
:104DA000240F351FE217F30771F480819181840F7E
:104DB000951F029611969C938E93828193811396F0
:104DC0009C938E931297E0E0F0E0D80112968D91BB
:104DD0009C911397009719F0F8018C01F6CF8D91F3
:104DE0009C9198012E5F3F4F820F931F20913607B1
:104DF000309137072817390769F4309729F4109252
:104E000039071092380702C01382128210933707B5
:104E100000933607DF91CF911F910F91089581E0A4
:104E200090E0F8940C94DD29FB01DC0102C00190B4
:104E30000D9241505040D8F70895FB01DC018D914F
:104E4000019080190110D9F3990B0895FB01DC0141
:104E500001900D920020E1F70895FB01DC01415023
:104E6000504048F001900D920020C9F701C01D92FA
:104E700041505040E0F70895AEE0B0E0E2E4F7E2E0
:104E80000C9458240D891E8986E08C831A8309832B
:104E90008FEF9FE79E838D83AE01475E5F4F6F89E3
:104EA000788DCE0101960E945F272F813885F80109
:104EB000E20FF31F10822E96E4E00C947424ACE011
:104EC000B0E0E5E6F7E20C944A247C016B018A012C
:104ED000FC0117821682838181FFBDC1CE0101963C
:104EE0004C01F7019381F60193FD859193FF819128
:104EF0006F01882309F4ABC1853239F493FD8591A4
:104F000093FF81916F01853229F4B70190E00E94EF
:104F10004729E7CF512C312C20E02032A0F48B32EE
:104F200069F030F4803259F0833269F420612CC08A
:104F30008D3239F0803339F4216026C0226024603C
:104F400023C0286021C027FD27C030ED380F3A303C
:104F500078F426FF06C0FAE05F9E300D1124532E30
:104F600013C08AE0389E300D1124332E20620CC00D
:104F70008E3221F426FD6BC1206406C08C3611F4FC
:104F8000206802C0883641F4F60193FD859193FFB5
:104F900081916F018111C1CF982F9F7D95549330DE
:104FA00028F40C5F1F4FFFE3F9830DC0833631F007
:104FB000833771F0833509F05BC022C0F80180812E
:104FC00089830E5F1F4F44244394512C540115C014
:104FD0003801F2E06F0E711CF801A080B18026FF4D
:104FE00003C0652D70E002C06FEF7FEFC5012C8715
:104FF0000E943C292C0183012C852F77222E17C07B
:105000003801F2E06F0E711CF801A080B18026FF1C
:1050100003C0652D70E002C06FEF7FEFC5012C87E4
:105020000E9431292C012C852068222E830123FC2B
:105030001BC0832D90E048165906B0F4B70180E2FA
:1050400090E00E9447293A94F4CFF50127FC85911E
:1050500027FE81915F01B70190E00E94472931103E
:105060003A94F1E04F1A51084114510471F7E5C028
:10507000843611F0893639F5F80127FF07C06081C1
:105080007181828193810C5F1F4F08C060817181A3
:10509000072E000C880B990B0E5F1F4F2F76722E78
:1050A00097FF09C090958095709561957F4F8F4FC0
:1050B0009F4F2068722E2AE030E0A4010E947F29D1
:1050C000A82EA81844C0853729F42F7EB22E2AE0D6
:1050D00030E025C0F22FF97FBF2E8F36C1F018F4D3
:1050E000883579F0B4C0803719F0883721F0AFC027
:1050F0002F2F2061B22EB4FE0DC08B2D8460B82EF0
:1051000009C024FF0AC09F2F9660B92E06C028E070
:1051100030E005C020E130E002C020E132E0F801DB
:10512000B7FE07C060817181828193810C5F1F4F40
:1051300006C06081718180E090E00E5F1F4FA40186
:105140000E947F29A82EA818FB2DFF777F2E76FEC0
:105150000BC0372D3E7FA51450F474FE0AC072FCBC
:1051600008C0372D3E7E05C0BA2C372D03C0BA2C9F
:1051700001C0B52C34FF0DC0FE01EA0DF11D808188
:10518000803311F4397E09C032FF06C0B394B39462
:1051900004C0832F867809F0B39433FD13C030FF29
:1051A00006C05A2CB31418F4530C5B18B32CB31468
:1051B00068F4B70180E290E03C870E944729B394ED
:1051C0003C85F5CFB31410F43B1801C0312C34FFEB
:1051D00012C0B70180E390E03C870E9447293C85DC
:1051E00032FF17C031FD03C088E790E002C088E5B8
:1051F00090E0B7010CC0832F867859F031FF02C0D0
:105200008BE201C080E237FD8DE2B70190E00E94A1
:105210004729A51438F4B70180E390E00E9447299C
:105220005A94F7CFAA94F401EA0DF11D8081B701D9
:1052300090E00E944729A110F5CF332009F451CE08
:10524000B70180E290E00E9447293A94F6CFF70137
:105250008681978102C08FEF9FEF2C96E2E10C943C
:105260006624FC010590615070400110D8F78095CC
:1052700090958E0F9F1F0895FC0161507040019022
:105280000110D8F7809590958E0F9F1F08950F936A
:105290001F93CF93DF93FB01238121FD03C08FEF89
:1052A0009FEF28C022FF16C0468157812481358197
:1052B0004217530744F4A081B1819D012F5F3F4FF6
:1052C000318320838C93268137812F5F3F4F378333
:1052D000268310C0EB01092F182F0084F185E02DE3
:1052E0000995892BE1F68E819F8101969F838E839C
:1052F000812F902FDF91CF911F910F910895FA0187
:10530000AA27283051F1203181F1E8946F936E7F04
:105310006E5F7F4F8F4F9F4FAF4FB1E03ED0B4E0F5
:105320003CD0670F781F891F9A1FA11D680F791F36
:105330008A1F911DA11D6A0F711D811D911DA11D47
:1053400020D009F468943F912AE0269F1124301957
:10535000305D3193DEF6CF010895462F4770405DF2
:105360004193B3E00FD0C9F7F6CF462F4F70405DA1
:105370004A3318F0495D31FD4052419302D0A9F7FC
:10538000EACFB4E0A6959795879577956795BA95F6
:10539000C9F700976105710508959B01AC010A2EBC
:1053A00006945795479537952795BA95C9F7620F93
:1053B000731F841F951FA01D089511E0CFEFD0E04B
:1053C00004C0FE010E94DC252196C030D107C9F738
:0453D000F894FFCF7F
:1053D400FF00003A0780004142434445464748499C
:1053E4004A4B4C4D4E4F50515253545556575859A1
:1053F4005A6162636465666768696A6B6C6D6E6F37
:10540400707172737475767778797A303132333497
:1054140035363738392B2F0000000000C80F222200
:105424005C5C6208660C6E0A720D74090000000070
:1054340000E2065E06AB0689069D06290700000009
:10544400006F125E0600000000B40F000000007E32
:1054540007617267006172673400617267330061CB
:105464007267320061726731006D73670066616C48
:105474007365006E6F6E65006C65667400726967B3
:10548400687400626F7468000D0A00302E390025BC
:10549400642E25730076657273696F6E0070696E91
:1054A4006700757074696D6500706175736500726D
:1054B4006573756D650073746F7000636F6C6C69F0
:1054C4006465537461746500636F6C6C6964654EE4
:1054D4006F7469667900666F6C6C6F77537461746E
:1054E4006500666F6C6C6F774E6F746966790073D4
:1054F4006C61636B43616C6962726174696F6E00A5
:105504006D6F766543616C6962726174696F6E0078
:105514007475726E43616C6962726174696F6E0056
:1055240063616C6962726174654D6F766500636175
:105534006C6962726174655475726E00666F72771D
:10554400617264006261636B00736572766F006CF4
:10555400696E6573656E736F720072676200666F61
:105564006C6C6F7700636F6C6C6964650062656571
:10557400700063616C696272617465536C61636B22
:10558400006E6F7469667900636F6D706C65746525
:10559400006E756C6C0074727565006E616E0069E6
:1055A4006E66006F76660069640073746174757367
:1055B40000636D640050726576696F757320636F64
:1055C4006D6D616E64206E6F742066696E697368B8
:1055D400656400616363657074656400436F6D6D39
:1055E400616E64206E6F74207265636F676E697399
:1055F4006564004A534F4E20706172736520657272
:04560400726F72004F
:00000001FF
